:1000000000308A0018280000223084008313000882
:10001000031917280630F800F701F70B0D28F80B25
:100020000C287B30F700F70B1328800B0A280800F8
:1000300003081F398300FF30A00083160317090847
:10004000C039890003131F129F1200300317880064
:100050008312870188018901831383160313051016
:10006000831205140230A100FA30A2000420A10B73
:10007000342883160510831205140230A100FA30CB
:0E008000A2000420A10B3F2803172D286300C7
:04400E00822FFF3FBF
:00000001FF
;PIC16F886
;CRC=62A3  CREATED="14-sep.-17 12:42"
