:1000000000308A006028000022080739F700220C1F
:10001000F800F80CF80C1F30F80578082407840065
:10002000831325188317F801F80AF70A1828F80D22
:10003000F70B1728A3080319202878088004232821
:10004000F80978088005080023308400831300082D
:10005000031937280630F800F701F70B2D28F80BA5
:100060002C287B30F700F70B3328800B2A28080058
:100070002108A2000130A300A501A4010420210849
:10008000A200A301A5018030A40004200230A20038
:10009000FA30A3002420A20B48282108A200A301C3
:1000A000A501A40104202108A200A301A50180301C
:1000B000A4000420C830A30024208A110A12792841
:1000C00003081F398300FF30A000831603170908B7
:1000D000C039890003131F129F12003003178800D4
:1000E0008312870188018901831328300313A1003B
:0800F00038280317752863008E
:04400E00822FFF3FBF
:00000001FF
;PIC16F886
;CRC=481F  CREATED="15-sep.-17 00:30"
